{
  "contractName": "RegistroInvestigaciones",
  "abi": [
    {
      "inputs": [],
      "payable": false,
      "stateMutability": "nonpayable",
      "type": "constructor"
    },
    {
      "constant": false,
      "inputs": [
        {
          "name": "param_nombre_Investigador",
          "type": "string"
        },
        {
          "name": "param_apellido1_Investigador",
          "type": "string"
        },
        {
          "name": "param_apellido2_Investigador",
          "type": "string"
        },
        {
          "name": "param_timestamp",
          "type": "string"
        },
        {
          "name": "param_hash_documento",
          "type": "string"
        }
      ],
      "name": "registrarInvestigacion",
      "outputs": [],
      "payable": false,
      "stateMutability": "nonpayable",
      "type": "function"
    },
    {
      "constant": true,
      "inputs": [],
      "name": "getNumeroTotalInvestigaciones",
      "outputs": [
        {
          "name": "_totalInvestigaciones",
          "type": "uint256"
        }
      ],
      "payable": false,
      "stateMutability": "view",
      "type": "function"
    },
    {
      "constant": true,
      "inputs": [
        {
          "name": "param_idInvestigacion",
          "type": "uint256"
        }
      ],
      "name": "getInfoRegistro",
      "outputs": [
        {
          "name": "_nombre_Investigador",
          "type": "string"
        },
        {
          "name": "_apellido1_Investigador",
          "type": "string"
        },
        {
          "name": "_apellido2_Investigador",
          "type": "string"
        },
        {
          "name": "_timestamp",
          "type": "string"
        },
        {
          "name": "_hash_documento",
          "type": "string"
        }
      ],
      "payable": false,
      "stateMutability": "view",
      "type": "function"
    },
    {
      "constant": true,
      "inputs": [
        {
          "name": "addr",
          "type": "address"
        }
      ],
      "name": "isAdmin",
      "outputs": [
        {
          "name": "resultado",
          "type": "bool"
        }
      ],
      "payable": false,
      "stateMutability": "view",
      "type": "function"
    }
  ],
  "bytecode": "0x608060405234801561001057600080fd5b5033600260006101000a81548173ffffffffffffffffffffffffffffffffffffffff021916908373ffffffffffffffffffffffffffffffffffffffff1602179055506000600181905550610b3b806100696000396000f300608060405260043610610062576000357c0100000000000000000000000000000000000000000000000000000000900463ffffffff168063197ffbb21461006757806324d7806c14610092578063d0d506df146100ed578063de566c6d1461026e575b600080fd5b34801561007357600080fd5b5061007c6104c4565b6040518082815260200191505060405180910390f35b34801561009e57600080fd5b506100d3600480360381019080803573ffffffffffffffffffffffffffffffffffffffff1690602001909291905050506104ce565b604051808215151515815260200191505060405180910390f35b3480156100f957600080fd5b5061026c600480360381019080803590602001908201803590602001908080601f0160208091040260200160405190810160405280939291908181526020018383808284378201915050505050509192919290803590602001908201803590602001908080601f0160208091040260200160405190810160405280939291908181526020018383808284378201915050505050509192919290803590602001908201803590602001908080601f0160208091040260200160405190810160405280939291908181526020018383808284378201915050505050509192919290803590602001908201803590602001908080601f0160208091040260200160405190810160405280939291908181526020018383808284378201915050505050509192919290803590602001908201803590602001908080601f0160208091040260200160405190810160405280939291908181526020018383808284378201915050505050509192919290505050610539565b005b34801561027a57600080fd5b506102996004803603810190808035906020019092919050505061062e565b60405180806020018060200180602001806020018060200186810386528b818151815260200191508051906020019080838360005b838110156102e95780820151818401526020810190506102ce565b50505050905090810190601f1680156103165780820380516001836020036101000a031916815260200191505b5086810385528a818151815260200191508051906020019080838360005b8381101561034f578082015181840152602081019050610334565b50505050905090810190601f16801561037c5780820380516001836020036101000a031916815260200191505b50868103845289818151815260200191508051906020019080838360005b838110156103b557808201518184015260208101905061039a565b50505050905090810190601f1680156103e25780820380516001836020036101000a031916815260200191505b50868103835288818151815260200191508051906020019080838360005b8381101561041b578082015181840152602081019050610400565b50505050905090810190601f1680156104485780820380516001836020036101000a031916815260200191505b50868103825287818151815260200191508051906020019080838360005b83811015610481578082015181840152602081019050610466565b50505050905090810190601f1680156104ae5780820380516001836020036101000a031916815260200191505b509a505050505050505050505060405180910390f35b6000600154905090565b6000600260009054906101000a900473ffffffffffffffffffffffffffffffffffffffff1673ffffffffffffffffffffffffffffffffffffffff168273ffffffffffffffffffffffffffffffffffffffff16141561052f5760019050610534565b600090505b919050565b8460008060015481526020019081526020016000206000019080519060200190610564929190610a6a565b508360008060015481526020019081526020016000206001019080519060200190610590929190610a6a565b5082600080600154815260200190815260200160002060020190805190602001906105bc929190610a6a565b5081600080600154815260200190815260200160002060030190805190602001906105e8929190610a6a565b508060008060015481526020019081526020016000206004019080519060200190610614929190610a6a565b506001600081548092919060010191905055505050505050565b606080606080606060008610158015610648575060015486105b15156106e2576040517f08c379a00000000000000000000000000000000000000000000000000000000081526004018080602001828103825260408152602001807f4964656e746966696361646f72206465206c6120696e7665737469676163696f81526020017f6e206e6f207265676973747261646120656e206c6120626c6f636b636861696e81525060400191505060405180910390fd5b6000808781526020019081526020016000206000018054600181600116156101000203166002900480601f01602080910402602001604051908101604052809291908181526020018280546001816001161561010002031660029004801561078b5780601f106107605761010080835404028352916020019161078b565b820191906000526020600020905b81548152906001019060200180831161076e57829003601f168201915b505050505094506000808781526020019081526020016000206001018054600181600116156101000203166002900480601f01602080910402602001604051908101604052809291908181526020018280546001816001161561010002031660029004801561083b5780601f106108105761010080835404028352916020019161083b565b820191906000526020600020905b81548152906001019060200180831161081e57829003601f168201915b505050505093506000808781526020019081526020016000206002018054600181600116156101000203166002900480601f0160208091040260200160405190810160405280929190818152602001828054600181600116156101000203166002900480156108eb5780601f106108c0576101008083540402835291602001916108eb565b820191906000526020600020905b8154815290600101906020018083116108ce57829003601f168201915b505050505092506000808781526020019081526020016000206003018054600181600116156101000203166002900480601f01602080910402602001604051908101604052809291908181526020018280546001816001161561010002031660029004801561099b5780601f106109705761010080835404028352916020019161099b565b820191906000526020600020905b81548152906001019060200180831161097e57829003601f168201915b505050505091506000808781526020019081526020016000206004018054600181600116156101000203166002900480601f016020809104026020016040519081016040528092919081815260200182805460018160011615610100020316600290048015610a4b5780601f10610a2057610100808354040283529160200191610a4b565b820191906000526020600020905b815481529060010190602001808311610a2e57829003601f168201915b5050505050905084848484849450945094509450945091939590929450565b828054600181600116156101000203166002900490600052602060002090601f016020900481019282601f10610aab57805160ff1916838001178555610ad9565b82800160010185558215610ad9579182015b82811115610ad8578251825591602001919060010190610abd565b5b509050610ae69190610aea565b5090565b610b0c91905b80821115610b08576000816000905550600101610af0565b5090565b905600a165627a7a72305820b27d9682b84a1be6eb9d9b811dad7a8a3d02a6bcd7c0945f4ad8daef33050ab90029",
  "source": "// SPDX-License-Identifier: MIT\npragma solidity >=0.4.22 <0.9.0;\n\ncontract RegistroInvestigaciones {\n\t\n\t// Estructura de datos  que contiene la informacion relativa a un registro de una investigación\n        struct Investigacion {\n        \tstring nombre_Investigador;\n        \tstring apellido1_Investigador;\n        \tstring apellido2_Investigador;\n\t\tstring timestamp;\n        \tstring hash_documento;\n\t\tuint identificador_documento;\n        }\n        \n\t// Un listado de las investigaciones registradas en la blockchain\n        mapping(uint => Investigacion) listaInvestigaciones;\n\n        // Contador del total de cursos disponibles\n        uint totalInvestigaciones;\n        \n        //  Dirección ETH del administrador (se inicializa en el constructor y se correspondera con la dirección ETH que despliegue el contrato en la red)\n        address administrador;\n        \n        // Prerequisito para algunas funciones que requieren que sean ejecutadas solo por el administrador\n        modifier onlyAdmin {\n          require(msg.sender == administrador,\n            \"Operacion solo permitida para el administrador del contrato.\"\n          );\n          _;\n        }\n\n        // Prerequisito para algunas funciones que requieren que sean ejecutadas solo por aquellas direcciones ETH autorizadas por el administrador\n        modifier onlyAuthorized(address addr) {\n          require(addr == 0x00,\n            \"Usuario no autorizado para realizar dicha operacion.\"\n          );\n          _;\n        }\n        \n        \n        /**\n        * Constructor del Smart Contract\n        *\n        * Inicializa la variable 'totalInvestigaciones' a cero\n        */\n\tconstructor() public {\n\t\tadministrador = msg.sender;\n        \ttotalInvestigaciones = 0;\n        }\n        \n        \n        /**\n        * Recibe como parametros los datos del investigador que registra la investigacion, la marca de tiempo del momento en el que se cifro el fichero y el hash del mismo.\n        *\n        * @param param_nombre_Investigador --> Nombre del investigador.\n        * @param param_apellido1_Investigador --> Primer apellido del investigador.\n\t* @param param_apellido2_Investigador --> Segundo apellido del investigador.\n\t* @param param_timestamp --> Marca de tiempo del momento en el que se llevó a cabo el cifrado del fichero.\n\t* @param param_hash_documento --> Hash del fichero cifrado.\n        */\n        function registrarInvestigacion(string memory param_nombre_Investigador, string memory param_apellido1_Investigador, string memory param_apellido2_Investigador, string memory param_timestamp, string memory param_hash_documento) public {\n\t\t \n\t\tlistaInvestigaciones[totalInvestigaciones].nombre_Investigador = param_nombre_Investigador;\n\t\tlistaInvestigaciones[totalInvestigaciones].apellido1_Investigador = param_apellido1_Investigador;\n\t\tlistaInvestigaciones[totalInvestigaciones].apellido2_Investigador = param_apellido2_Investigador;\n\t\tlistaInvestigaciones[totalInvestigaciones].timestamp = param_timestamp;\n\t\tlistaInvestigaciones[totalInvestigaciones].hash_documento = param_hash_documento;\n\t\t\t\n             \ttotalInvestigaciones++;\n        }\n        \n        /**\n        * Esta funcion devuelve el numero total de investigaciones registradas en la blockchain\n        *\n        * @return _totalInvestigaciones --> el numero total de investigaciones registradas\n        */\n        function getNumeroTotalInvestigaciones() public view returns(uint _totalInvestigaciones) {\n                _totalInvestigaciones = totalInvestigaciones;\n        }\n        \n        \n        /**\n        * Esta función retorna, en base al identificador de la investigacion, los datos relacionados con la misma.\n        *\n        * @param param_idInvestigacion -> identificador del curso\n        *\n        * @return _nombre_Investigador --> nombre del investigador\n        * @return _apellido1_Investigador --> apellido 1 del investigador\n        * @return _apellido2_Investigador --> apellido 2 del investigador\n        * @return _timestamp --> timestamp del cifrado del fichero\n        * @return _hash_documento --> hash del fichero cifrado\n        *\n        */\n        function getInfoRegistro(uint param_idInvestigacion) public view returns(string memory _nombre_Investigador, string memory _apellido1_Investigador , string memory _apellido2_Investigador, string memory _timestamp, string memory _hash_documento){\n\t\t\n\t\trequire(param_idInvestigacion >= 0 && param_idInvestigacion < totalInvestigaciones,\n\t\t \"Identificador de la investigacion no registrada en la blockchain\"\n\t\t );\n              \n              \t_nombre_Investigador = listaInvestigaciones[param_idInvestigacion].nombre_Investigador;\n              \t_apellido1_Investigador = listaInvestigaciones[param_idInvestigacion].apellido1_Investigador;\n              \t_apellido2_Investigador = listaInvestigaciones[param_idInvestigacion].apellido2_Investigador;\n              \t_timestamp = listaInvestigaciones[param_idInvestigacion].timestamp;\n              \t_hash_documento = listaInvestigaciones[param_idInvestigacion].hash_documento;\n\n              \treturn (_nombre_Investigador, _apellido1_Investigador, _apellido2_Investigador, _timestamp, _hash_documento);\n        }\n\t\t\n\n        \n        /**\n        * Esta función retorna, en base a la direccion que recibe si se trata del administrador del contrato o no.\n        *\n        * @param addr --> Direccion ETH a comprobar\n        */\n        function isAdmin(address addr) public view returns(bool resultado) {\n                if(addr == administrador) {\n                \tresultado = true;\n                } else {\n                \tresultado = false;\n                }\n        }\n}\n",
  "sourcePath": "/home/fcscl/gestionFicheros/contracts/RegistroInvestigaciones.sol",
  "compiler": {
    "name": "solc",
    "version": "0.4.25+commit.59dbf8f1.Emscripten.clang"
  },
  "schemaVersion": "3.4.7",
  "updatedAt": "2022-04-28T14:58:41.456Z",
  "devdoc": {
    "methods": {
      "getInfoRegistro(uint256)": {
        "params": {
          "param_idInvestigacion": "-> identificador del curso"
        },
        "return": "_nombre_Investigador --> nombre del investigador_apellido1_Investigador --> apellido 1 del investigador_apellido2_Investigador --> apellido 2 del investigador_timestamp --> timestamp del cifrado del fichero_hash_documento --> hash del fichero cifrado        "
      },
      "getNumeroTotalInvestigaciones()": {
        "return": "_totalInvestigaciones --> el numero total de investigaciones registradas"
      },
      "isAdmin(address)": {
        "params": {
          "addr": "--> Direccion ETH a comprobar"
        }
      },
      "registrarInvestigacion(string,string,string,string,string)": {
        "params": {
          "param_apellido1_Investigador": "--> Primer apellido del investigador.",
          "param_apellido2_Investigador": "--> Segundo apellido del investigador.",
          "param_hash_documento": "--> Hash del fichero cifrado.",
          "param_nombre_Investigador": "--> Nombre del investigador.",
          "param_timestamp": "--> Marca de tiempo del momento en el que se llevó a cabo el cifrado del fichero."
        }
      }
    }
  },
  "userdoc": {
    "methods": {
      "getInfoRegistro(uint256)": {
        "notice": "Esta función retorna, en base al identificador de la investigacion, los datos relacionados con la misma."
      },
      "getNumeroTotalInvestigaciones()": {
        "notice": "Esta funcion devuelve el numero total de investigaciones registradas en la blockchain"
      },
      "isAdmin(address)": {
        "notice": "Esta función retorna, en base a la direccion que recibe si se trata del administrador del contrato o no."
      },
      "registrarInvestigacion(string,string,string,string,string)": {
        "notice": "Recibe como parametros los datos del investigador que registra la investigacion, la marca de tiempo del momento en el que se cifro el fichero y el hash del mismo."
      }
    }
  }
}